S00C00004D4320322E7372656336
S11300000C942A000C943C000C943C000C943C008E
S11300100C943C000C943C000C943C000C943C006C
S11300200C943C000C943C000C943C000C943C005C
S11300300C943C000C943C000C943C000C943C004C
S11300400C943C000C943C000C943C000C943C003C
S11300500C943C0011241FBECFE5D8E0DEBFCDBF19
S113006020E0A0E6B0E001C01D92A436B207E1F79B
S11300700E94B7000C94F0020C94000086B390E048
S11300808031910539F421E030E03093630020930E
S113009062004FC08032910539F422E030E03093A1
S11300A063002093620045C08033910539F423E056
S11300B030E030936300209362003BC080349105AC
S11300C039F424E030E0309363002093620031C0BF
S11300D08035910539F425E030E0309363002093B6
S11300E0620027C08036910539F426E030E0309371
S11300F06300209362001DC08037910539F427E026
S113010030E0309363002093620013C0803891057F
S113011039F428E030E0309363002093620009C092
S11301208039910531F429E030E030936300209365
S11301306200803A910539F48AE090E0909361007E
S1130140809360000895803B910539F48BE090E042
S113015090936100809360000895803C910531F490
S11301608CE090E09093610080936000089587B3E1
S11301708F7E87BB87B38F7D87BB87B38F7B87BB1E
S113018087B38F7787BB87B3816087BB8FEF8ABBC9
S113019090EF94BB81BB1DBC1CBC83EC99E097BD64
S11301A086BD0E943E0086B3803DD9F704C298996B
S11301B00CC28BB38E7F8BBB8BB38D7F8BBB8BB30E
S11301C08B7F8BBB8BB388608BBB4FE788E391E05D
S11301D0415080409040E1F700C000008BB38E7F17
S11301E08BBB8BB382608BBB8BB38B7F8BBB8BB393
S11301F0877F8BBB4FE78BE898E04150804090406D
S1130200E1F700C000008BB38E7F8BBB8BB38D7F77
S11302108BBB8BB38B7F8BBB8BB388608BBB4FE764
S113022088E391E0415080409040E1F700C0000035
S11302308BB381608BBB8BB38D7F8BBB8BB38B7F7D
S11302408BBB8BB3877F8BBB4FE78AE196E0415032
S113025080409040E1F700C00000809160009091E0
S113026061008A30910509F087C0999B80C083B3EF
S113027083B39E9B17C083B385B3806185BB85B36D
S11302808F7D85BB85B38F7B85BB85B38F7785BB1E
S11302904FEF81EE94E0415080409040E1F700C080
S11302A000004FC083B39D9B18C083B383B385B351
S11302B08F7E85BB85B38F7D85BB85B3806485BB0D
S11302C085B38F7785BB4FEF81EE94E0415080403A
S11302D09040E1F700C0000034C083B383B383B31C
S11302E09F9B16C085B38F7E85BB85B3806285BB1B
S11302F085B38F7B85BB85B38F7785BB4FEF81EE4D
S113030094E0415080409040E1F700C0000019C0E3
S113031083B383B383B383B385B38F7E85BB85B344
S11303208F7D85BB85B38F7B85BB85B3806885BB9B
S11303304FEF81EE94E0415080409040E1F700C0DF
S1130340000082E88FBD8BE18EBD8FEF90E09BBDF6
S11303508ABD4FEF81EE94E0415080409040E1F738
S113036000C0000081E490E09BBD8ABD21C183B33D
S113037082B3806482BB29C18B30910509F087C0A8
S11303809A9B80C080B380B3829B17C080B382B332
S1130390816082BB82B38D7F82BB82B38B7F82BB41
S11303A082B3877F82BB4FEF81EE94E0415080405F
S11303B09040E1F700C000004FC080B3819B18C09B
S11303C080B380B382B38E7F82BB82B38D7F82BBC6
S11303D082B3846082BB82B3877F82BB4FEF81EE9E
S11303E094E0415080409040E1F700C0000034C0E8
S11303F080B380B380B3839B16C082B38E7F82BBED
S113040082B3826082BB82B38B7F82BB82B3877FDD
S113041082BB4FEF81EE94E0415080409040E1F781
S113042000C0000019C080B380B380B380B382B32E
S11304308E7F82BB82B38D7F82BB82B38B7F82BB74
S113044082B3886082BB4FEF81EE94E041508040DC
S11304509040E1F700C0000082E28FBD8BE18EBDC9
S11304608FEF90E099BD88BD4FEF81EE94E041504D
S113047080409040E1F700C0000081E490E099BD25
S113048088BD96C083B382B3806482BB9EC00C9740
S113049009F08EC09B9B87C089B389B3CE9B17C0DC
S11304A089B38BB380618BBB8BB38F7D8BBB8BB3D9
S11304B08F7B8BBB8BB38F778BBB4FEF81EE94E03D
S11304C0415080409040E1F700C000004FC089B324
S11304D0CD9B18C089B389B38BB38F7E8BBB8BB391
S11304E08F7D8BBB8BB380648BBB8BB38F778BBBC4
S11304F04FEF81EE94E0415080409040E1F700C01E
S1130500000034C089B389B389B3CF9B16C08BB3C1
S11305108F7E8BBB8BB380628BBB8BB38F7B8BBB90
S11305208BB38F778BBB4FEF81EE94E041508040CB
S11305309040E1F700C0000019C089B389B389B3C2
S113054089B38BB38F7E8BBB8BB38F7D8BBB8BB30C
S11305508F7B8BBB8BB380688BBB4FEF81EE94E0BA
S1130560415080409040E1F700C0000085B58864A8
S113057085BD85B5846285BD81E483BD4FEF81EE81
S113058094E0415080409040E1F700C000008BEBC4
S113059083BD4FEF81EE94E0415080409040E1F7FD
S11305A000C0000005C083B382B3806482BB0DC069
S11305B02F5F3F4F02C020E030E0809162009091B5
S11305C06300281739070CF4F2CD809162009091F2
S11305D0630028173907C9F788B3816088BBE1CD68
S10705E0F894FFCFB9
S9030000FC
