:100000000C942A000C9447000C9447000C94470071
:100010000C9447000C9447000C9447000C94470044
:100020000C9447000C9447000C9447000C94470034
:100030000C9447000C9447000C9447000C94470024
:100040000C9447000C9447000C9447000C94470014
:100050000C94470011241FBECFE5D8E0DEBFCDBF12
:1000600011E0A0E6B0E0EAEFF8E002C005900D92E2
:10007000AC35B107D9F721E0ACE5B1E001C01D9284
:10008000A236B207E1F70E94E2020C947B040C94C2
:10009000000082E680B984E086BF11B8089584EA42
:1000A00086BF06B607FEFDCF089583B984E886BFF4
:1000B00006B607FEFDCF089540E050E00AC02F5F6E
:1000C0003F4F02C020E030E029373105C4F34F5FD5
:1000D0005F4F84179507B4F7089583B1826083B9A1
:1000E00084E886BF06B607FEFDCF81E090E00E945F
:1000F0005C0083B18D7F83B984E886BF06B607FEB6
:10010000FDCF089593B19E7F93B994E896BF06B64C
:1001100007FEFDCF93B19F7093B994E896BF06B6E2
:1001200007FEFDCF93B1807F892B83B984E886BF1A
:1001300006B607FEFDCF0E946D000895CF93C82F2D
:1001400083B18E7F83B984E886BF06B607FEFDCFF4
:1001500083B18F7083B984E886BF06B607FEFDCFF2
:1001600083B19C2F907F892B83B984E886BF06B624
:1001700007FEFDCF0E946D0083B18F7083B984E8C4
:1001800086BF06B607FEFDCF23B130E1C39FC00195
:100190001124822B83B984E886BF06B607FEFDCF03
:1001A0000E946D00CF91089580E30E94820080E359
:1001B0000E94820080E20E94820088E20E949E00EB
:1001C0008CE00E949E0081E00E949E0086E00E94DA
:1001D0009E0080E80E949E000895CF93C82F83B1AF
:1001E000816083B984E886BF06B607FEFDCF83B180
:1001F0008F7083B984E886BF06B607FEFDCF83B152
:100200009C2F907F892B83B984E886BF06B607FEB2
:10021000FDCF0E946D0083B18F7083B984E886BFE3
:1002200006B607FEFDCF23B130E1C39FC001112404
:10023000822B83B984E886BF06B607FEFDCF0E94F5
:100240006D00CF910895CF93DF93EC0103C0219609
:100250000E94ED0088818111FACFDF91CF9108953E
:1002600080915C0190915D018F70992790935D0161
:1002700080935C010E97F1F4E0915E01F0915F01D3
:10028000EE0FFF1FEE0FFF1FE058FF4F808188BB6E
:10029000E0915E01F0915F01EE0FFF1FEE0FFF1F77
:1002A000EE0FFF1FE05AFF4F808191819093610113
:1002B0008093600180915C0190915D010D97F1F454
:1002C000E0915E01F0915F01EE0FFF1FEE0FFF1F47
:1002D000E058FF4F818188BBE0915E01F0915F01A2
:1002E000EE0FFF1FEE0FFF1FEE0FFF1FE05AFF4F35
:1002F00082819381909361018093600180915C0180
:1003000090915D010B97F1F4E0915E01F0915F0136
:10031000EE0FFF1FEE0FFF1FE058FF4F828188BBDB
:10032000E0915E01F0915F01EE0FFF1FEE0FFF1FE6
:10033000EE0FFF1FE05AFF4F84819581909361017A
:100340008093600180915C0190915D010797F1F4C9
:10035000E0915E01F0915F01EE0FFF1FEE0FFF1FB6
:10036000E058FF4F838188BBE0915E01F0915F010F
:10037000EE0FFF1FEE0FFF1FEE0FFF1FE05AFF4FA4
:10038000868197819093610180936001089580B385
:1003900090E090935D0180935C010F97C1F38FEE25
:1003A00082BB80B390E090935D0180935C018F3EAF
:1003B000910531F010925F0110925E010E943001B0
:1003C0008FED82BB80B390E090935D0180935C01E0
:1003D0008F3D910541F081E090E090935F01809323
:1003E0005E010E9430018FEB82BB80B390E090935E
:1003F0005D0180935C018F3B910541F082E090E0CC
:1004000090935F0180935E010E9430018FE782BB71
:1004100080B390E090935D0180935C018F379105EC
:1004200041F083E090E090935F0180935E010E9431
:1004300030010895809160019091610181309105B2
:1004400029F480E990E00E9423010895823091050B
:1004500029F482E990E00E942301089583309105F8
:1004600029F484E990E00E942301089584309105E5
:1004700029F486E990E00E942301089585309105D2
:1004800029F488E990E00E942301089586309105BF
:1004900029F48AE990E00E942301089587309105AC
:1004A00029F48CE990E00E94230108958830910599
:1004B00029F48EE990E00E94230108958930910586
:1004C00029F480EA90E00E94230108958A30910582
:1004D00029F482EA90E00E94230108958B3091056F
:1004E00029F489EA90E00E94230108958C30910557
:1004F00029F480EB90E00E94230108958D3091054E
:1005000029F484EB90E00E94230108950E9721F4D2
:1005100082EC90E00E94230108958BB38E7F8BBB09
:100520008BB38D7F8BBB8BB38B7F8BBB8BB3886087
:100530008BBB2FEF82E597E0215080409040E1F7A0
:1005400000C000008BB38E7F8BBB8BB382608BBBF4
:100550008BB38B7F8BBB8BB3877F8BBB2FEF82E5FE
:1005600097E0215080409040E1F700C000008BB33D
:100570008E7F8BBB8BB38D7F8BBB8BB384608BBB30
:100580008BB3877F8BBB2FEF82E597E021508040B4
:100590009040E1F700C000008BB381608BBB8BB350
:1005A0008D7F8BBB8BB38B7F8BBB8BB3877F8BBBE1
:1005B0002FEF82E597E0215080409040E1F700C0A6
:1005C00000000895CF9387B3806187BB87B38062B3
:1005D00087BB87B3806487BB87B3806887BB80EFA6
:1005E00081BBCFE0C2BB84B38B7F84BB84B3886004
:1005F00084BB84B38F7E84BB84B38F7D84BB84B380
:100600008F7B84BB84B3806884BB8AB381608ABBE0
:100610008AB382608ABB8AB384608ABB8AB38860EB
:100620008ABB8AB38F778ABB0E9449000E944F0021
:1006300080E70E9455000E94D40080E80E949E003E
:1006400088EC90E00E9423012FEF81EE94E021508E
:1006500080409040E1F700C0000081E00E949E00D1
:100660002FEF80E792E0215080409040E1F700C0FA
:10067000000080E80E949E0083ED90E00E9423012C
:100680002FEF80E792E0215080409040E1F700C0DA
:10069000000080EC0E949E0080EE90E00E9423010A
:1006A0000E94C7010E941A022FEF81EE94E02150B0
:1006B00080409040E1F700C00000C2BB81E00E9492
:1006C0009E002FEF80E792E0215080409040E1F7BC
:1006D00000C0000080E80E949E008DEE90E00E9425
:1006E00023012FEF80E792E0215080409040E1F716
:1006F00000C0000080EC0E949E0088EF90E00E9405
:1007000023010E94C7010E941A022FEF81EE94E09C
:10071000215080409040E1F700C00000C2BB81E062
:100720000E949E002FEF80E792E021508040904091
:10073000E1F700C0000080E80E949E0081E091E0A7
:100740000E9423019C9904C09D9902C09E9B03C0F6
:1007500085B3806885BB0E94C70181E00E949E002E
:100760002FEF80E792E0215080409040E1F700C0F9
:1007700000000E941A022FEF80E792E02150804093
:100780009040E1F700C000009C9904C09D9902C010
:100790009E9B66C085B3806885BB85B3886085BB3A
:1007A0009C9B1EC081E00E949E0080E80E949E00EB
:1007B0008AE091E00E94230180EC0E949E0086E185
:1007C00091E00E9423012FEF81EE94E021508040C0
:1007D0009040E1F700C0000085B3877F85BB87C0EC
:1007E0009D9B1EC081E00E949E0080E80E949E00AA
:1007F00084E291E00E94230180EC0E949E0086E149
:1008000091E00E9423012FEF81EE94E0215080407F
:100810009040E1F700C0000085B3877F85BB67C0CB
:100820009E9B65C081E00E949E0080E80E949E0021
:1008300080E391E00E94230180EC0E949E0086E10B
:1008400091E00E9423012FEF81EE94E0215080403F
:100850009040E1F700C0000085B3877F85BB47C0AB
:1008600083B383B383B385B38F7785BB0E948D0237
:100870009A9B21C085B3886085BB81E00E949E0061
:1008800080E80E949E0089E391E00E94230180ECB1
:100890000E949E0086E191E00E9423012FEF81EEED
:1008A00094E0215080409040E1F700C0000085B303
:1008B000877F85BB1CC0CF9B67CF2FEF83EC99E070
:1008C000215080409040E1F700C0000081E00E948C
:1008D0009E0080E80E949E0084E491E00E94230133
:1008E00080EC0E949E008BE491E00E94230180E056
:0A08F00090E0CF910895F894FFCF37
:1008FA000700080009000A000400050006000B00B2
:10090A000100020003000C000D000E000E000E0094
:10091A00708090A0405060B0102030C0D00000001D
:10092A003100320033003400350036003700380019
:10093A0039004255545445520043484545534500F1
:10094A004A414D0050524F43455353494E472E2E6C
:10095A002E004552524F520057454C434F4D452E9B
:10096A002E2E00456E746572204E756D626572009A
:10097A006F6620536C69636573202D2000456E7481
:10098A0065722074686520005061737465202D209B
:10099A00005072657373204F4E00425554544552AD
:1009AA002D4F56455200506C65617365205265663D
:1009BA00696C6C004348454553452D4F56455200D6
:1009CA004A414D2D4F5645520042524541442D4F02
:1009DA0056455200444F4E45202100454E4A4F5934
:0C09EA0020594F5552204D45414C000053
:00000001FF
